S00D00007561726D322E7372656330
S11300000C94C6000C94E4070C94EE000C94EE00DF
S11300100C9458060C94EE000C94EE000C94EE0034
S11300200C94EE000C94EE000C9488060C94EE00F4
S11300300C94EE000C9443080C94EE000C94EE0027
S11300400C94EE000C94EE000C94EE000C94EE0074
S11300500C94EE00036EDB363D9A9999993DABAA58
S1130060AA2A3E000000803F072C7AA5BA6CC590EE
S1130070DA3B9365FC8BBC53F810FD3C5692834DE0
S1130080BD879D3AB63DCBC9BF5BBE73DA0FC93F8E
S113009000407A10F35A00A0724E18090010A5D43B
S11300A0E80000E87648170000E40B54020000CA98
S11300B09A3B000000E1F5050000809698000000DE
S11300C040420F000000A08601000000102700003D
S11300D00000E803000000006400000000000A00C3
S11300E0000000000100000000002C76D888DC67C6
S11300F04F0823DFC1DFAE59E1B1B796E5E3E4531E
S1130100C63AE651997696E8E6C28426EB898C9B3A
S113011062ED407C6FFCEFBC9C9F40F2BAA56FA5DA
S1130120F490055A2AF75C936B6CF9676DC11BFC5C
S1130130E0E40D47FEF520E6B500D0ED902E030077
S1130140943577050080841E080000204E0A0000C4
S113015000C80C333333330F986E12831141EF8D83
S11301602114893BE65516CFFEE6DB18D1844B38C3
S11301701BF77C1D901DA4BBE424203284725E22F4
S11301808100C9F124ECA1E53D27300911241FBEEB
S1130190CFE5D8E0DEBFCDBF10E0A0E6B0E0E6E5F5
S11301A0F4E202C005900D92A43CB107D9F721E016
S11301B0A4ECB0E001C01D92AD3EB207E1F710E03F
S11301C0C6ECD0E004C02197FE010E949F0CC53C00
S11301D0D107C9F70E9401050C9429120C94000060
S11301E02AB128692AB920B5266820BDDC01CB01D3
S11301F0880F991FAA1FBB1F880F991FAA1FBB1F17
S11302009C01AD01220F331F441F551F220F331FC2
S1130210441F551F60E074E284EF90E00E945E0C7E
S11302208FEF820F89B9DA01C9010197A109B109D8
S1130230892F9A2FAB2FBB2780BD08958CB95D9B66
S1130240FECF0895CF93DF93EC018881882331F0AA
S113025021960E941E0189918111FBCFDF91CF91DC
S1130260089511B888E480B9089594EA96BF06B653
S113027007FEFDCF91B1987F903171F483B984E882
S113028086BF06B607FEFDCF81B1887F803431F08A
S1130290803231F083E0089580E0089581E008958C
S11302A082E0089584E986BF06B604FCFDCF089574
S11302B01F93CF93DF93182FC4EAD4E8C6BF06B6C2
S11302C007FEFDCF91B1987F9830C1F713B9D6BF1F
S11302D006B607FEFDCF91B1987F983119F00E94C0
S11302E05201ECCFDF91CF911F91089583B984E837
S11302F086BF06B607FEFDCF81B1887F883221F024
S1130300803321F082E0089580E0089581E008952B
S113031084EC86BF06B607FEFDCF83B1089584E85A
S113032086BF06B607FEFDCF83B10895CF93DF9352
S1130330EC012FEF82E597E0215080409040E1F7F7
S113034000C0000088810E94580189E10E94760162
S113035087E00E9476010E94520188810E94580120
S11303608BE60E94760181E00E9476010E94520190
S113037088810E9458018AE10E94760180E00E94EF
S113038076010E94520188810E9458018BE10E94EB
S1130390760180E00E9476010E94520188810E94C9
S11303A0580188E30E94760181E00E9476010E9450
S11303B0520188810E9458018CE10E94760188E0F4
S11303C00E9476010E945201DF91CF910895CF934C
S11303D0DF93EC0188810E9458018BE30E9476012F
S11303E08A810E943501DF91CF9108951F93CF93A5
S11303F0DF93EC010E94E7010E948801182F0E94FC
S11304008801612F70E0762F6627682B71956195BE
S11304107109072E000C880B990B0E94AF0A6C839C
S11304207D838E839F830E948801182F0E948801F8
S1130430612F70E0762F6627682B7195619571099D
S1130440072E000C880B990B0E94AF0A68877987E6
S11304508A879B870E948801182F0E948801612F38
S113046070E0762F6627682B719561957109072EC8
S1130470000C880B990B0E94AF0A6C877D878E87CE
S11304809F870E948801182F0E948801612F70E0C5
S1130490762F6627682B072E000C880B990B0E9479
S11304A0AF0A688B798B8A8B9B8B0E948801182FEB
S11304B00E948801612F70E0762F6627682B719562
S11304C061957109072E000C880B990B0E94AF0AE5
S11304D06C8B7D8B8E8B9F8B0E948801182F0E94C2
S11304E08801612F70E0762F6627682B71956195DE
S11304F07109072E000C880B990B0E94AF0A688FB4
S1130500798F8A8F9B8F0E948801182F0E948F01F8
S1130510612F70E0762F6627682B719561957109BC
S1130520072E000C880B990B0E94AF0A6C8F7D8FED
S11305308E8F9F8F0E945201DF91CF911F9108955A
S11305404F925F926F927F928F929F92AF92BF92DF
S1130550CF92DF92EF92FF920F931F93CF93DF938B
S1130560CDB7DEB72C970FB6F894DEBF0FBECDBF64
S11305708C010E94F60120E030E040E05EE3D80107
S113058014966D917D918D919C9117970E94960B75
S11305906D837E838F8398876093590170935A018A
S11305A080935B0190935C0120E030E040E05EE3E7
S11305B0F80160857185828593850E94960B698315
S11305C07A838B839C836093550170935601809347
S11305D057019093580120E030E040E05EE3D801F9
S11305E01C966D917D918D919C911F970E94960B05
S11305F069877A878B879C87609351017093520136
S11306008093530190935401F80160A571A582A5CC
S113061093A50E94AF0A9B01AC01D80154966D9139
S11306207D918D919C9157970E947D0920E030E047
S113063043E053E40E94050A4B015C0160934901C5
S113064070934A0180934B0190934C01F80164A18B
S113065075A186A197A10E94AF0A9B01AC01D801A4
S113066058966D917D918D919C915B970E947D0927
S113067020E030E043E053E40E94050A6093450122
S1130680709346018093470190934801F80164A553
S113069075A586A597A50E94AF0A9B01AC01D80158
S11306A05C966D917D918D919C915F970E947D09DF
S11306B020E030E043E053E40E94050A2B013C01B2
S11306C060934101709342018093430190934401EC
S11306D084B5883C58F424B58091EB019091EC01E9
S11306E0820F911D9093EC018093EB016091EB01DB
S11306F07091EC01072E000C880B990B20E231EA73
S113070047E050E00E94800CCA01B9010E94AF0A80
S11307106B017C0160933D0170933E0180933F0126
S1130720909340011092EC011092EB019B01AC01FB
S1130730C301B2010E94960BF80120A131A142A18C
S113074053A10E947E092B013C01D80190966D9320
S11307507D938D939C939397A7019601C501B40152
S11307600E94960B9B01AC0160914D0170914E016A
S113077080914F01909150010E947E0960934D0138
S113078070934E0180934F019093500129813A81D7
S11307904B815C81CA01B9010E94960B6B017C01FB
S11307A02D813E814F815885CA01B9010E94960B63
S11307B04B015C01A7019601C501B4010E947E09A9
S11307C06B017C0129853A854B855C85CA01B90199
S11307D00E94960B9B01AC01C701B6010E947E09E1
S11307E00E94090C9B01AC0169817A818B819C81F7
S11307F00E94050A0E94EA0921EE3EE245E652E41F
S11308000E94960B6B017C0180915E018823F1F0BC
S11308102FE832EC45E75FE3C301B2010E94960B77
S11308204B015C012AE037ED43E25DE3C701B60109
S11308300E94960B9B01AC01C501B4010E947E0984
S1130840F80160A371A382A393A30AC0D801909670
S1130850CD92DD92ED92FC92939781E080935E01BC
S1130860F80160A171A182A193A12C960FB6F8940E
S1130870DEBF0FBECDBFDF91CF911F910F91FF90CF
S1130880EF90DF90CF90BF90AF909F908F907F902C
S11308906F905F904F900895CF92DF92EF92FF9206
S11308A00F931F93CF93DF93EC0108EC10E0CE017C
S11308B00E94F60168A579A58AA59BA50E94AF0AA6
S11308C02C893D894E895F890E947E090E94770A9E
S11308D068A779A78AA79BA76CA17DA18EA19FA1D8
S11308E00E94AF0A288D398D4A8D5B8D0E947E0946
S11308F00E94770A6CA37DA38EA39FA36CA57DA5FC
S11309008EA59FA50E94AF0A2C8D3D8D4E8D5F8DC7
S11309100E947E090E94770A6CA77DA78EA79FA7D5
S11309208FE99FE00197F1F700C000000150110921
S113093009F0BDCF68A579A58AA59BA50F2EF8EC73
S1130940CF2ED12CE12CF12CF02DA70196010E9481
S1130950800C28A739A74AA75BA76CA17DA18EA10B
S11309609FA1A70196010E94800C2CA33DA34EA336
S11309705FA36CA57DA58EA59FA5A70196010E94E6
S1130980800C2CA73DA74EA75FA7DF91CF911F91A5
S11309900F91FF90EF90DF90CF9008958D9A8FB5CF
S11309A0826F8FBD8EB58B618EBD87E893E197BD55
S11309B086BD089586B597B5C2979BBD8ABD2FEFB6
S11309C08BE49DE1215080409040E1F700C000009D
S11309D086B597B59BBD8ABD089586B597B5845FE6
S11309E091409BBD8ABD2FEF8BE49DE12150804057
S11309F09040E1F700C0000086B597B59BBD8ABD65
S1130A000895CF93DF93CDB7DEB7CC56D1090FB697
S1130A10F894DEBF0FBECDBF78948FEF84BBB89837
S1130A208A988BB780648BBF85B7816085BF6596D4
S1130A301CAE1DAE1EAE1FAE659769961CAE1DAEF4
S1130A401EAE1FAE69976D961CAE1DAE1EAE1FAED8
S1130A506D97A1961CAE1DAE1EAE1FAEA19780ED84
S1130A6090E09AAB89AB81ED90E09CAB8BAB19A283
S1130A701AA21BA21CA21DA21EA21FA218A619A67E
S1130A801AA61BA61CA61DA61EA61FA618AA82EDA2
S1130A9090E09A83898383ED90E09C838B8360E06C
S1130AA076E980E090E00E94F0000E943101CE01DE
S1130AB0C1960E949601CE0101960E9496010E9461
S1130AC0CE0489B7826889BF85B58B6085BD88EC03
S1130AD083BD83B78A6083BF8CE98CBFCE01C19686
S1130AE00E944C04CE0101960E944C0414BC0F2EAB
S1130AF0F1EDAF2EF1E0BF2EF02D0F2EF6E84F2EC4
S1130B00F0E05F2EF02D0F2EF5E98F2EF0E09F2EF2
S1130B10F02DCE01C1960E94A002A5966CAF7DAFC8
S1130B208EAF9FAFA597CE0101960E94A002A99611
S1130B306CAF7DAF8EAF9FAFA997C0902C01D090C2
S1130B402D01E0902E01F0902F0120902A01309089
S1130B502B0180912C0190912D01A0912E01B09137
S1130B602F01AD968CAF9DAFAEAFBFAFAD9707EC85
S1130B7011E022E043E0A5966CAD7DAD8EAD9FAD56
S1130B80A5970E94A50C38017F920F93A6E6B0E0CA
S1130B90BF93AF93BF92AF920E94EB0CC5010E942A
S1130BA0220122E043E0A9966CAD7DAD8EAD9FADF0
S1130BB0A9970E94A50C7F920F93A6E7B0E0BF937C
S1130BC0AF93BF92AF920E94EB0CC5010E94220129
S1130BD060912C0170912D0180912E0190912F0133
S1130BE022E043E00E94A50C7F920F935F924F9204
S1130BF0BF92AF920E94EB0CC5010E9422012DEC22
S1130C003CEC4CE351E4C701B6010E94050A22E022
S1130C1043E00E94A50C7F920F939F928F92BF9204
S1130C20AF920E94EB0CC5010E942201A8E0B1E042
S1130C306D917D918D919C910E94770A6F5F7F4F9A
S1130C400FB6F894DEBF0FBECDBF6330710508F058
S1130C5060CFA6EEB0E06D917D918D919C910E9444
S1130C60770A6F5F7F4F6330710508F052CFB1018F
S1130C7080E090E00E94AD0AAD962CAD3DAD4EAD46
S1130C805FADAD970E947D090E94770A672B09F03A
S1130C9040CF8091390190913A01019709F039CF01
S1130CA081E30E941E0110923A011092390131CF62
S1130CB01F920F920FB60F9211248F939F93AF93AD
S1130CC0BF938091EB019091EC0188539F4F9093D7
S1130CD0EC018093EB018091310190913201A0915C
S1130CE03301B09134010196A11DB11D80933101EE
S1130CF090933201A0933301B093340114BCBF919B
S1130D00AF919F918F910F900FBE0F901F901895E8
S1130D101F920F920FB60F9211242F933F934F936C
S1130D205F936F937F938F939F93AF93BF93EF934F
S1130D30FF9380915D01853120F48F5F80935D0185
S1130D4032C1E8E0F1E0848D958D0196958F848F12
S1130D50268D378D281739074CF5158E148E828D04
S1130D60938D978F868F9923A4F425B381E090E027
S1130D70018C02C0880F991F0A94E2F780958223A0
S1130D8085BB868D978D919581959109978F868FD7
S1130D902CC025B381E090E00090210102C0880FAF
S1130DA0991F0A94E2F7822B85BB1FC081309105FD
S1130DB069F425B381E090E00090200102C0880F1F
S1130DC0991F0A94E2F7822B85BB0FC0029769F43E
S1130DD025B381E090E00090200102C0880F991FA4
S1130DE00A94E2F78095822385BBE6EEF0E0848DD9
S1130DF0958D0196958F848F268D378D2817390709
S1130E004CF5158E148E828D938D978F868F992332
S1130E10A4F425B381E090E0018C02C0880F991FEF
S1130E200A94E2F78095822385BB868D978D9195F0
S1130E3081959109978F868F2CC025B381E090E02E
S1130E400090FF0002C0880F991F0A94E2F7822BDA
S1130E5085BB1FC08130910569F425B381E090E022
S1130E600090FE0002C0880F991F0A94E2F7822BBB
S1130E7085BB0FC0029769F425B381E090E0009030
S1130E80FE0002C0880F991F0A94E2F7809582231E
S1130E9085BBE4ECF0E0848D958D0196958F848F6D
S1130EA0268D378D281739075CF5158E148E828DA3
S1130EB0938D978F868F91A380A39923A4F425B350
S1130EC081E090E0018C02C0880F991F0A94E2F738
S1130ED08095822385BB868D978D91958195910907
S1130EE0978F868F60C025B381E090E00090DD008D
S1130EF002C0880F991F0A94E2F7822B85BB53C066
S1130F008130910569F425B381E090E00090DC0024
S1130F1002C0880F991F0A94E2F7822B85BB43C055
S1130F20029709F040C025B3E4ECF0E081E090E0E2
S1130F30008C02C0880F991F0A94E2F780958223DF
S1130F4085BB80A191A118161906BCF42EEA37E4DA
S1130F5041E25DE360913501709136018091370182
S1130F60909138010E947D09609335017093360198
S1130F70809337019093380116C02EEA37E441E29A
S1130F805DE3609135017091360180913701909154
S1130F9038010E947E096093350170933601809375
S1130FA0370190933801FF91EF91BF91AF919F91D9
S1130FB08F917F916F915F914F913F912F910F90FE
S1130FC00FBE0F901F9018951F920F920FB60F929D
S1130FD011242F933F934F935F936F937F938F933A
S1130FE09F93AF93BF93EF93FF9396B380B39170A6
S1130FF082FB222720F981E08227981306C086B35A
S113100090B394708170981317C060912C01709103
S11310102D0180912E0190912F0120E030E040E8D5
S11310205FE30E947E0960932C0170932D018093ED
S11310302E0190932F0116C060912C0170912D0107
S113104080912E0190912F0120E030E040E85FE391
S11310500E947D0960932C0170932D0180932E01D1
S113106090932F01FF91EF91BF91AF919F918F9139
S11310707F916F915F914F913F912F910F900FBE90
S11310800F901F9018951F920F920FB60F92112474
S11310902F933F934F935F936F937F938F939F937C
S11310A0AF93BF93EF93FF932CB1822F90E0909373
S11310B0EA018093E901209330018736910551F4C8
S11310C083EA90E00E9422011092EA011092E90161
S11310D00E94ED048091E9019091EA018237910523
S11310E051F482EB90E00E9422011092EA011092E6
S11310F0E9010E94DA048091E9019091EA018E32BB
S1131100910509F081C0E091E701F091E801ED5902
S1131110FE4F108283E691E00E94C50C90933C013F
S113112080933B012091E5013091E60121153105C1
S113113011F58535910534F085E590E090933C01F7
S113114080933B0160913B0170913C01072E000CA0
S1131150880B990B0E94AF0A60936200709363003E
S1131160809364009093650081E090E09093E601A1
S11311708093E50140C02130310561F58834910543
S11311803CF088E490E090933C0180933B0109C0DB
S1131190893E9F4F34F488EE9FEF90933C018093F7
S11311A03B0160913B0170913C01072E000C880BC0
S11311B0990B0E94AF0A60935F0170936001809362
S11311C061019093620182E090E09093E601809344
S11311D0E50111C02230310571F4909361008093D0
S11311E060001092E6011092E50181E090E0909396
S11311F03A018093390110923C0110923B01109204
S1131200E8011092E70117C09C01205331092A30EC
S1131210310518F08D32910571F42091E701309178
S1131220E801F901ED59FE4F80832F5F3F4F309362
S1131230E8012093E7011092EA011092E901FF917D
S1131240EF91BF91AF919F918F917F916F915F913A
S11312504F913F912F910F900FBE0F901F901895B3
S1131260E8E0F1E0148215821682178280E090E0B3
S1131270A0EAB0E480879187A287B3871486158695
S11312801686178627E0208F26E0218F138E128E74
S1131290158E148E178E168EE6EEF0E014821582EB
S11312A01682178280879187A287B3871486158652
S11312B01686178625E0208F24E0218F138E128E48
S11312C0158E148E178E168EE4ECF0E014821582BF
S11312D01682178280879187A287B3871486158622
S11312E01686178683E0808F82E0818F138E128E9C
S11312F0158E148E178E168E08955058BB27AA2764
S11313000E9495090C945C0B0E944E0B38F00E94CD
S1131310550B20F039F49F3F19F426F40C94100B6C
S11313200EF4E095E7FB0C940A0BE92F0E946D0B79
S113133058F3BA17620773078407950720F079F406
S1131340A6F50C948F0B0EF4E0950B2EBA2FA02D5E
S11313500B01B90190010C01CA01A0011124FF275E
S1131360591B99F0593F50F4503E68F11A16F04059
S1131370A22F232F342F4427585FF3CF4695379558
S11313802795A795F0405395C9F77EF41F16BA0B1D
S1131390620B730B840BBAF09150A1F0FF0FBB1FCB
S11313A0661F771F881FC2F70EC0BA0F621F731F14
S11313B0841F48F4879577956795B795F7959E3F71
S11313C008F0B0CF9395880F08F09927EE0F979502
S11313D0879508959F939F77EEE389379E0728F4B6
S11313E0E4E5F0E00E943A0B0CC00E94EA0A90582F
S11313F0A2EA2AED3FE049EC5FE30E9495090E94CE
S11314005C0B0F9007FC905808950E94190A0C94E5
S11314105C0B0E94550B58F00E944E0B40F029F4CF
S11314205F3F29F00C940A0B51110C94900B0C940F
S1131430100B0E946D0B68F39923B1F3552391F3BC
S1131440951B550BBB27AA2762177307840738F02F
S11314509F5F5F4F220F331F441FAA1FA9F335D08C
S11314600E2E3AF0E0E832D091505040E695001C40
S1131470CAF72BD0FE2F29D0660F771F881FBB1FFA
S1131480261737074807AB07B0E809F0BB0B802DD8
S1131490BF01FF2793585F4F3AF09E3F510578F004
S11314A00C940A0B0C94900B5F3FE4F3983ED4F336
S11314B0869577956795B795F7959F5FC9F7880FD8
S11314C0911D9695879597F90895E1E0660F771F2A
S11314D0881FBB1F621773078407BA0720F0621BBB
S11314E0730B840BBA0BEE1F88F7E09508950E94E6
S11314F07E0A6894B1110C94900B08950E94750BA8
S113150088F09F5798F0B92F9927B751B0F0E1F0C0
S1131510660F771F881F991F1AF0BA95C9F714C070
S1131520B13091F00E948F0BB1E008950C948F0BB1
S1131530672F782F8827B85F39F0B93FCCF38695A9
S113154077956795B395D9F73EF490958095709506
S113155061957F4F8F4F9F4F0895E89409C097FB83
S11315603EF490958095709561957F4F8F4F9F4F76
S11315709923A9F0F92F96E9BB279395F6958795BA
S113158077956795B795F111F8CFFAF4BB0F11F47D
S113159060FF1BC06F5F7F4F8F4F9F4F16C0882324
S11315A011F096E911C0772321F09EE8872F762F5A
S11315B005C0662371F096E8862F70E060E02AF09B
S11315C09A95660F771F881FDAF7880F9695879587
S11315D097F90895DF93CF931F930F938B01EC0139
S11315E0E8E6F0E00E94130B0E945C0B9801AE0148
S11315F08B01EC0160E070E080E89FE30E947D09CC
S11316000E94090C9801AE010F911F91CF91DF91B7
S11316100C94A90B97F99F6780E870E060E0089547
S11316209FEF80EC0895DF93CF931F930F93FF9266
S1131630EF92DF927B018C01689406C0DA2EEF01F1
S11316400E94A90BFE01E894A5912591359145913D
S11316505591A6F3EF010E949509FE019701A80197
S1131660DA9469F7DF90EF90FF900F911F91CF917B
S1131670DF9108959F938F937F936F93FF93EF93DD
S11316809B01AC010E94960BEF91FF910E94130BFA
S11316902F913F914F915F910C94960B00240A94E3
S11316A01616170618060906089500240A94121639
S11316B01306140605060895092E0394000C11F46C
S11316C0882352F0BB0F40F4BF2B11F460FF04C019
S11316D06F5F7F4F8F4F9F4F089557FD9058440F72
S11316E0551F59F05F3F71F04795880F97FB991F7D
S11316F061F09F3F79F0879508951216130614063A
S1131700551FF2CF4695F1DF08C0161617061806C6
S1131710991FF1CF86957105610508940895E894A1
S1131720BB2766277727CB0197F908950E94A90B59
S11317300C945C0B0E944E0B38F00E94550B20F069
S1131740952311F00C940A0B0C94100B11240C9497
S1131750900B0E946D0B70F3959FC1F3950F50E0B1
S1131760551F629FF001729FBB27F00DB11D639F4F
S1131770AA27F00DB11DAA1F649F6627B00DA11DF5
S1131780661F829F2227B00DA11D621F739FB00D9B
S1131790A11D621F839FA00D611D221F749F33270B
S11317A0A00D611D231F849F600D211D822F762FA4
S11317B06A2F11249F5750409AF0F1F088234AF081
S11317C0EE0FFF1FBB1F661F771F881F91505040ED
S11317D0A9F79E3F510580F00C940A0B0C94900BD2
S11317E05F3FE4F3983ED4F3869577956795B79574
S11317F0F795E7959F5FC1F7FE2B880F911D96958E
S1131800879597F9089519F416F40C94100B0C9419
S1131810490C0E94750BB8F39923C9F3B6F39F578B
S1131820550B87FF0E94570C0024A0E640EA900164
S113183080585695979528F4805C660F771F881F0B
S113184020F026173707480730F4621B730B840B0C
S1131850202931294A2BA695179407942025312550
S11318604A2758F7660F771F881F20F02617370777
S1131870480730F4620B730B840B200D311D411D9E
S1131880A09581F7B901842F9158880F9695879573
S113189008959F3F31F0915020F48795779567958F
S11318A0B795880F911D9695879597F9089591504E
S11318B05040660F771F881FD2F70895A1E21A2EB1
S11318C0AA1BBB1BFD010DC0AA1FBB1FEE1FFF1FE0
S11318D0A217B307E407F50720F0A21BB30BE40B30
S11318E0F50B661F771F881F991F1A9469F7609577
S11318F07095809590959B01AC01BD01CF01089531
S1131900052E97FB1EF400940E94970C57FD07D0F8
S11319100E945E0C07FC03D04EF40C94970C509577
S11319204095309521953F4F4F4F5F4F08959095C7
S11319308095709561957F4F8F4F9F4F0895EE0F5F
S1131940FF1F0590F491E02D0994EF920F931F93DC
S1131950CF93DF93E80147FD02C034E001C034E1D6
S1131960E42F440FFF0BF7FF03C0F195E195F10954
S1131970E32E022F2E2FAE010E94E00ECE01DF9146
S1131980CF911F910F91EF900895FC01882799271B
S1131990E89421912032E9F3293010F02E30C8F375
S11319A02B3241F02D3239F4689404C00E94E30CC8
S11319B0820F911D219120532A30C0F31EF490957B
S11319C081959F4F08957AE0979F902D879F802D52
S11319D0910D11240895AEE0B0E0E1EFFCE00C9429
S11319E000120D891E8986E08C831A8309838FEF88
S11319F09FE79E838D83AE01475E5F4F6F89788D2D
S1131A00CE0101960E940E0D2F813885F801E20F58
S1131A10F31F10822E96E4E00C941C12ACE0B0E0AC
S1131A20E4E1FDE00C94F2117C016B018A01FC01FC
S1131A3017821682838181FFBDC1CE0101964C01BC
S1131A40F7019381F60193FD859193FF81916F01D5
S1131A50882309F4ABC1853239F493FD859193FF52
S1131A6081916F01853229F4B70190E00E945C11E5
S1131A70E7CF512C312C20E02032A0F48B3269F0D6
S1131A8030F4803259F0833269F420612CC08D32F5
S1131A9039F0803339F4216026C02260246023C0E9
S1131AA0286021C027FD27C030ED380F3A3078F484
S1131AB026FF06C0FAE05F9E300D1124532E13C09A
S1131AC08AE0389E300D1124332E20620CC08E32F1
S1131AD021F426FD6BC1206406C08C3611F4206805
S1131AE002C0883641F4F60193FD859193FF8191FC
S1131AF06F018111C1CF982F9F7D9554933028F4A5
S1131B000C5F1F4FFFE3F9830DC0833631F0833739
S1131B1071F0833509F05BC022C0F80180818983AC
S1131B200E5F1F4F44244394512C540115C03801B7
S1131B30F2E06F0E711CF801A080B18026FF03C093
S1131B40652D70E002C06FEF7FEFC5012C870E9406
S1131B5051112C0183012C852F77222E17C03801B7
S1131B60F2E06F0E711CF801A080B18026FF03C063
S1131B70652D70E002C06FEF7FEFC5012C870E94D6
S1131B8046112C012C852068222E830123FC1BC0C6
S1131B90832D90E048165906B0F4B70180E290E036
S1131BA00E945C113A94F4CFF50127FC859127FE3D
S1131BB081915F01B70190E00E945C1131103A9469
S1131BC0F1E04F1A51084114510471F7E5C084360D
S1131BD011F0893639F5F80127FF07C0608171815A
S1131BE0828193810C5F1F4F08C060817181072E31
S1131BF0000C880B990B0E5F1F4F2F76722E97FFE8
S1131C0009C090958095709561957F4F8F4F9F4F38
S1131C102068722E2AE030E0A4010E949411A82EBC
S1131C20A81844C0853729F42F7EB22E2AE030E06C
S1131C3025C0F22FF97FBF2E8F36C1F018F48835F6
S1131C4079F0B4C0803719F0883721F0AFC02F2F56
S1131C502061B22EB4FE0DC08B2D8460B82E09C055
S1131C6024FF0AC09F2F9660B92E06C028E030E0FA
S1131C7005C020E130E002C020E132E0F801B7FE07
S1131C8007C060817181828193810C5F1F4F06C000
S1131C906081718180E090E00E5F1F4FA4010E947B
S1131CA09411A82EA818FB2DFF777F2E76FE0BC06B
S1131CB0372D3E7FA51450F474FE0AC072FC08C090
S1131CC0372D3E7E05C0BA2C372D03C0BA2C01C077
S1131CD0B52C34FF0DC0FE01EA0DF11D8081803367
S1131CE011F4397E09C032FF06C0B394B39404C022
S1131CF0832F867809F0B39433FD13C030FF06C0F8
S1131D005A2CB31418F4530C5B18B32CB31468F4A2
S1131D10B70180E290E03C870E945C11B3943C855B
S1131D20F5CFB31410F43B1801C0312C34FF12C0AA
S1131D30B70180E390E03C870E945C113C8532FF50
S1131D4017C031FD03C088E790E002C088E590E049
S1131D50B7010CC0832F867859F031FF02C08BE2A3
S1131D6001C080E237FD8DE2B70190E00E945C1172
S1131D70A51438F4B70180E390E00E945C115A94F2
S1131D80F7CFAA94F401EA0DF11D8081B70190E028
S1131D900E945C11A110F5CF332009F451CEB70194
S1131DA080E290E00E945C113A94F6CFF7018681BC
S1131DB0978102C08FEF9FEF2C96E2E10C940E12F4
S1131DC04F925F926F927F929F92AF92BF92CF9207
S1131DD0DF92EF92FF920F931F93CF93DF93CDB7D0
S1131DE0DEB729970FB6F894DEBF0FBECDBF6A01E8
S1131DF0122FB02E2BE3201720F0FF24F394F00EC3
S1131E0002C0BCE3FB2E0F2D27E0AE014F5F5F4FF6
S1131E100E946E10AC018981982F9970913031F035
S1131E20E1FC06C0E0FE06C090E205C09DE203C0EE
S1131E309BE201C090E0EE2DE07183FF3CC0911164
S1131E4002C083E001C084E0811718F4212F281B0D
S1131E5001C020E0E1110BC0F601822F30E288239B
S1131E6019F031938150FBCFC20ED11C20E099238D
S1131E7029F0D6019C93F60131966F01C6010396B1
S1131E80E2FE0AC03EE4D6013C9341E411964C9331
S1131E90119712963C9306C03EE6F601308341E664
S1131EA041833283FC01322F40E2332309F442C0E0
S1131EB041933150FACF82FF44C0911102C083E0B4
S1131EC001C084E0811718F4212F281B01C020E0F1
S1131ED0E1110BC0F601822F30E2882319F031930F
S1131EE08150FBCFC20ED11C20E0992329F0D601EA
S1131EF09C93F60131966F01C6010396E2FE0BC076
S1131F0039E4D6013C933EE411963C93119736E4B0
S1131F1012963C9307C039E6F60130833EE63183DE
S1131F2036E63283FC01322F40E2332319F0419329
S1131F303150FBCFFC01E20FF11D10828EEF9FEFB9
S1131F40B7C0F1E0911101C0F0E06F2F70E01416FA
S1131F50150624F49A012F5F3F4F02C021E030E0C0
S1131F60260F371FBB2029F06B2D70E06F5F7F4F6A
S1131F7002C060E070E0260F371F612F70E0261763
S1131F8037071CF4121B212F01C020E03E2D3871AD
S1131F9059F4D601322F60E2332319F06D93315096
S1131FA0FBCFC20ED11C20E0FF2331F0D6019C935D
S1131FB0B6016F5F7F4F6B01E1110BC0F601922FE9
S1131FC030E3992319F031939150FBCFC20ED11C09
S1131FD020E09F2D940F3A81782F7071A72E84FFF3
S1131FE003C0313309F49150191624F4993018F0D0
S1131FF098E001C091E0E42F852F57FF02C0E0E094
S113200080E06E2F782FE0E0F0E0AEE29A2E3A0105
S1132010691A71082A01461A570A0B2D10E0119506
S1132020019511096F3F8FEF780729F4D6019C922F
S1132030C60101966C014617570784F066167706A9
S11320406CF47F01E40CF51CA1E0B0E0AC0FBD1F03
S1132050EA0EFB1ED7011196BC9002C090E3B92E84
S1132060615071093196C60101967C0160177107B0
S113207024F0D601BC926C01D5CF6417750741F4E6
S1132080363320F4353321F4A11002C081E3B82E95
S1132090F601B082F701822F90E2882319F0919320
S11320A08150FBCFF701E20FF11D108280E090E038
S11320B029960FB6F894DEBF0FBECDBFDF91CF9146
S11320C01F910F91FF90EF90DF90CF90BF90AF9052
S11320D09F907F906F905F904F900895283008F004
S11320E027E03327DA01990F311D87FD91600096AF
S11320F06105710539F432602E5F3D9330E32A9512
S1132100E1F708959F3F30F080387105610509F0CB
S11321103C5F3C5F3D93913008F08068911DDF93F4
S1132120CF931F930F93FF92EF92192F987F969559
S1132130E92F96959695E90FFF27E651FF4F9927CA
S11321403327EE24FF24A701E701059008940794A0
S113215028F4360FE71EF81E491F511D660F771F1E
S1132160881F991F0694A1F70590079428F4E70E99
S1132170F81E491F561FC11D770F881F991F661F20
S11321800694A1F70590079428F4F80E491F561FEA
S1132190C71FD11D880F991F661F771F0694A1F7CB
S11321A00590079420F4490F561FC71FD81F990F95
S11321B0661F771F881F0694A9F7849110951770DE
S11321C041F0D695C79557954795F794E7941A9596
S11321D0C1F7E0E9F0E068941590159135916591A7
S11321E0959105907FE27395E118F10A430B560B24
S11321F0C90BD009C0F7E10CF11E431F561FC91FBC
S1132200D01D7EF4703311F48A95E6CFE894015022
S113221030F0080F0AF40027021708F4202F239542
S1132220022F7A3328F079E37D932A95E9F710C0D9
S11322307D932A9589F60694979567953795179512
S11322401794E118F10A430B560BC90BD00998F007
S113225023957E9173957A3308F070E37C93201371
S1132260B8F77E9170617D9330F0839571E37D932F
S113227070E32A95E1F71124EF90FF900F911F91DD
S1132280CF91DF91992787FD90950895FC010590E2
S1132290615070400110D8F7809590958E0F9F1F64
S11322A00895FC016150704001900110D8F78095A9
S11322B090958E0F9F1F08950F931F93CF93DF93D5
S11322C0FB01238121FD03C08FEF9FEF28C022FF74
S11322D016C046815781248135814217530744F43F
S11322E0A081B1819D012F5F3F4F318320838C9367
S11322F0268137812F5F3F4F3783268310C0EB0140
S1132300092F182F0084F185E02D0995892BE1F61A
S11323108E819F8101969F838E83812F902FDF91E1
S1132320CF911F910F910895FA01AA27283051F1F6
S1132330203181F1E8946F936E7F6E5F7F4F8F4FF2
S11323409F4FAF4FB1E03ED0B4E03CD0670F781F51
S1132350891F9A1FA11D680F791F8A1F911DA11D36
S11323606A0F711D811D911DA11D20D009F468946F
S11323703F912AE0269F11243019305D3193DEF617
S1132380CF010895462F4770405D4193B3E00FD0CD
S1132390C9F7F6CF462F4F70405D4A3318F0495DB8
S11323A031FD4052419302D0A9F7EACFB4E0A6959B
S11323B09795879577956795BA95C9F700976105BD
S11323C0710508959B01AC010A2E06945795479513
S11323D037952795BA95C9F7620F731F841F951F08
S11323E0A01D08952F923F924F925F926F927F9219
S11323F08F929F92AF92BF92CF92DF92EF92FF9211
S11324000F931F93CF93DF93CDB7DEB7CA1BDB0BBC
S11324100FB6F894DEBF0FBECDBF09942A88398861
S113242048885F846E847D848C849B84AA84B98468
S1132430C884DF80EE80FD800C811B81AA81B98174
S1132440CE0FD11D0FB6F894DEBF0FBECDBFED0188
S10924500895F894FFCF8B
S11324561900000048426D703120616E676C65207A
S11324663D20257309006D703220616E676C65200E
S11324763D202573090064636F756E746572203D93
S1132486202573090064656772656573203D202500
S1132496730A006772697020636F6D706C6574658A
S11324A6640072656C6561736520636F6D706C653D
S10724B674656400E1
S9030000FC
